{
  "_format": "hh-sol-artifact-1",
  "contractName": "MarketPlace",
  "sourceName": "src/backend/contracts/Markerspace.sol",
  "abi": [
    {
      "inputs": [
        {
          "internalType": "uint256",
          "name": "_feePercent",
          "type": "uint256"
        }
      ],
      "stateMutability": "nonpayable",
      "type": "constructor"
    },
    {
      "anonymous": false,
      "inputs": [
        {
          "indexed": false,
          "internalType": "uint256",
          "name": "itemID",
          "type": "uint256"
        },
        {
          "indexed": false,
          "internalType": "uint256",
          "name": "tokenID",
          "type": "uint256"
        },
        {
          "indexed": false,
          "internalType": "uint256",
          "name": "price",
          "type": "uint256"
        },
        {
          "indexed": true,
          "internalType": "address",
          "name": "NFT",
          "type": "address"
        },
        {
          "indexed": true,
          "internalType": "address",
          "name": "seller",
          "type": "address"
        }
      ],
      "name": "token_is_Listed",
      "type": "event"
    },
    {
      "anonymous": false,
      "inputs": [
        {
          "indexed": false,
          "internalType": "uint256",
          "name": "itemID",
          "type": "uint256"
        },
        {
          "indexed": false,
          "internalType": "uint256",
          "name": "tokenID",
          "type": "uint256"
        },
        {
          "indexed": false,
          "internalType": "uint256",
          "name": "price",
          "type": "uint256"
        },
        {
          "indexed": true,
          "internalType": "address",
          "name": "NFT",
          "type": "address"
        },
        {
          "indexed": true,
          "internalType": "address",
          "name": "seller",
          "type": "address"
        },
        {
          "indexed": true,
          "internalType": "address",
          "name": "buyer",
          "type": "address"
        }
      ],
      "name": "token_sold",
      "type": "event"
    },
    {
      "inputs": [
        {
          "internalType": "uint256",
          "name": "_ItemID",
          "type": "uint256"
        }
      ],
      "name": "BuyItem",
      "outputs": [],
      "stateMutability": "payable",
      "type": "function"
    },
    {
      "inputs": [
        {
          "internalType": "uint256",
          "name": "",
          "type": "uint256"
        }
      ],
      "name": "Items",
      "outputs": [
        {
          "internalType": "uint256",
          "name": "itemID",
          "type": "uint256"
        },
        {
          "internalType": "contract ERC721",
          "name": "NFT",
          "type": "address"
        },
        {
          "internalType": "uint256",
          "name": "tokenID",
          "type": "uint256"
        },
        {
          "internalType": "uint256",
          "name": "price",
          "type": "uint256"
        },
        {
          "internalType": "bool",
          "name": "sold",
          "type": "bool"
        },
        {
          "internalType": "address payable",
          "name": "seller",
          "type": "address"
        }
      ],
      "stateMutability": "view",
      "type": "function"
    },
    {
      "inputs": [
        {
          "internalType": "uint256",
          "name": "_price",
          "type": "uint256"
        },
        {
          "internalType": "contract ERC721",
          "name": "_NFT",
          "type": "address"
        },
        {
          "internalType": "uint256",
          "name": "_tokenID",
          "type": "uint256"
        }
      ],
      "name": "ListItem",
      "outputs": [],
      "stateMutability": "nonpayable",
      "type": "function"
    }
  ],
  "bytecode": "0x608060405234801561001057600080fd5b506040516110183803806110188339818101604052810190610032919061009d565b60016000819055508060018190555033600260006101000a81548173ffffffffffffffffffffffffffffffffffffffff021916908373ffffffffffffffffffffffffffffffffffffffff160217905550506100e7565b600081519050610097816100d0565b92915050565b6000602082840312156100af57600080fd5b60006100bd84828501610088565b91505092915050565b6000819050919050565b6100d9816100c6565b81146100e457600080fd5b50565b610f22806100f66000396000f3fe6080604052600436106100345760003560e01c806317b47cc4146100395780635f74d59d1461007b578063884c6440146100a4575b600080fd5b34801561004557600080fd5b50610060600480360381019061005b9190610867565b6100c0565b60405161007296959493929190610ab0565b60405180910390f35b34801561008757600080fd5b506100a2600480360381019061009d9190610890565b610149565b005b6100be60048036038101906100b99190610867565b61041b565b005b60046020528060005260406000206000915090508060000154908060010160009054906101000a900473ffffffffffffffffffffffffffffffffffffffff16908060020154908060030154908060040160009054906101000a900460ff16908060040160019054906101000a900473ffffffffffffffffffffffffffffffffffffffff16905086565b6002600054141561018f576040517f08c379a000000000000000000000000000000000000000000000000000000000815260040161018690610a70565b60405180910390fd5b6002600081905550600083116101da576040517f08c379a00000000000000000000000000000000000000000000000000000000081526004016101d190610a30565b60405180910390fd5b600360008154809291906101ed90610cfe565b91905055508173ffffffffffffffffffffffffffffffffffffffff166323b872dd3330846040518463ffffffff1660e01b815260040161022f939291906109d9565b600060405180830381600087803b15801561024957600080fd5b505af115801561025d573d6000803e3d6000fd5b505050506040518060c0016040528060035481526020018373ffffffffffffffffffffffffffffffffffffffff1681526020018281526020018481526020016000151581526020013373ffffffffffffffffffffffffffffffffffffffff168152506004600060035481526020019081526020016000206000820151816000015560208201518160010160006101000a81548173ffffffffffffffffffffffffffffffffffffffff021916908373ffffffffffffffffffffffffffffffffffffffff160217905550604082015181600201556060820151816003015560808201518160040160006101000a81548160ff02191690831515021790555060a08201518160040160016101000a81548173ffffffffffffffffffffffffffffffffffffffff021916908373ffffffffffffffffffffffffffffffffffffffff1602179055509050503373ffffffffffffffffffffffffffffffffffffffff168273ffffffffffffffffffffffffffffffffffffffff167f979d2c880ff51f31bfcc9db5344a8b87eb6753000aff1cea57344faa7a91cb99600354848760405161040693929190610b11565b60405180910390a36001600081905550505050565b60006004600083815260200190815260200160002090506000606460015460646104459190610b59565b83600301546104549190610be0565b61045e9190610baf565b90508034116104a2576040517f08c379a000000000000000000000000000000000000000000000000000000000815260040161049990610a10565b60405180910390fd5b6000831180156104b457506003548311155b6104f3576040517f08c379a00000000000000000000000000000000000000000000000000000000081526004016104ea90610a50565b60405180910390fd5b8160040160009054906101000a900460ff1615610545576040517f08c379a000000000000000000000000000000000000000000000000000000000815260040161053c90610a90565b60405180910390fd5b8160040160019054906101000a900473ffffffffffffffffffffffffffffffffffffffff1673ffffffffffffffffffffffffffffffffffffffff166108fc83600301549081150290604051600060405180830381858888f193505050501580156105b3573d6000803e3d6000fd5b50600260009054906101000a900473ffffffffffffffffffffffffffffffffffffffff1673ffffffffffffffffffffffffffffffffffffffff166108fc8360030154836106009190610c3a565b9081150290604051600060405180830381858888f1935050505015801561062b573d6000803e3d6000fd5b5060006004600085815260200190815260200160002060010160009054906101000a900473ffffffffffffffffffffffffffffffffffffffff1690508073ffffffffffffffffffffffffffffffffffffffff166323b872dd303360046000898152602001908152602001600020600201546040518463ffffffff1660e01b81526004016106ba939291906109d9565b600060405180830381600087803b1580156106d457600080fd5b505af11580156106e8573d6000803e3d6000fd5b5050505060018360040160006101000a81548160ff0219169083151502179055503373ffffffffffffffffffffffffffffffffffffffff166004600086815260200190815260200160002060040160019054906101000a900473ffffffffffffffffffffffffffffffffffffffff1673ffffffffffffffffffffffffffffffffffffffff166004600087815260200190815260200160002060010160009054906101000a900473ffffffffffffffffffffffffffffffffffffffff1673ffffffffffffffffffffffffffffffffffffffff167f226f1b603113b59704ed097d526020c53bf77c3663e5f2025a5b4bcaebce4e226004600089815260200190815260200160002060000154600460008a815260200190815260200160002060020154600460008b81526020019081526020016000206003015460405161082f93929190610b11565b60405180910390a450505050565b60008135905061084c81610ebe565b92915050565b60008135905061086181610ed5565b92915050565b60006020828403121561087957600080fd5b600061088784828501610852565b91505092915050565b6000806000606084860312156108a557600080fd5b60006108b386828701610852565b93505060206108c48682870161083d565b92505060406108d586828701610852565b9150509250925092565b6108e881610c80565b82525050565b6108f781610c6e565b82525050565b61090681610c92565b82525050565b61091581610cda565b82525050565b6000610928602e83610b48565b915061093382610da5565b604082019050919050565b600061094b602183610b48565b915061095682610df4565b604082019050919050565b600061096e601283610b48565b915061097982610e43565b602082019050919050565b6000610991601f83610b48565b915061099c82610e6c565b602082019050919050565b60006109b4601183610b48565b91506109bf82610e95565b602082019050919050565b6109d381610cd0565b82525050565b60006060820190506109ee60008301866108ee565b6109fb60208301856108ee565b610a0860408301846109ca565b949350505050565b60006020820190508181036000830152610a298161091b565b9050919050565b60006020820190508181036000830152610a498161093e565b9050919050565b60006020820190508181036000830152610a6981610961565b9050919050565b60006020820190508181036000830152610a8981610984565b9050919050565b60006020820190508181036000830152610aa9816109a7565b9050919050565b600060c082019050610ac560008301896109ca565b610ad2602083018861090c565b610adf60408301876109ca565b610aec60608301866109ca565b610af960808301856108fd565b610b0660a08301846108df565b979650505050505050565b6000606082019050610b2660008301866109ca565b610b3360208301856109ca565b610b4060408301846109ca565b949350505050565b600082825260208201905092915050565b6000610b6482610cd0565b9150610b6f83610cd0565b9250827fffffffffffffffffffffffffffffffffffffffffffffffffffffffffffffffff03821115610ba457610ba3610d47565b5b828201905092915050565b6000610bba82610cd0565b9150610bc583610cd0565b925082610bd557610bd4610d76565b5b828204905092915050565b6000610beb82610cd0565b9150610bf683610cd0565b9250817fffffffffffffffffffffffffffffffffffffffffffffffffffffffffffffffff0483118215151615610c2f57610c2e610d47565b5b828202905092915050565b6000610c4582610cd0565b9150610c5083610cd0565b925082821015610c6357610c62610d47565b5b828203905092915050565b6000610c7982610cb0565b9050919050565b6000610c8b82610cb0565b9050919050565b60008115159050919050565b6000610ca982610c6e565b9050919050565b600073ffffffffffffffffffffffffffffffffffffffff82169050919050565b6000819050919050565b6000610ce582610cec565b9050919050565b6000610cf782610cb0565b9050919050565b6000610d0982610cd0565b91507fffffffffffffffffffffffffffffffffffffffffffffffffffffffffffffffff821415610d3c57610d3b610d47565b5b600182019050919050565b7f4e487b7100000000000000000000000000000000000000000000000000000000600052601160045260246000fd5b7f4e487b7100000000000000000000000000000000000000000000000000000000600052601260045260246000fd5b7f56616c7565206973206c657373207468656e20746865206c697374656420707260008201527f6963652c2074727920616761696e000000000000000000000000000000000000602082015250565b7f70726963652073686f756c642062652067726561746572207468616e207a657260008201527f6f00000000000000000000000000000000000000000000000000000000000000602082015250565b7f456e7465722076616c6964206974656d49440000000000000000000000000000600082015250565b7f5265656e7472616e637947756172643a207265656e7472616e742063616c6c00600082015250565b7f4974656d20616c726561647920736f6c64000000000000000000000000000000600082015250565b610ec781610c9e565b8114610ed257600080fd5b50565b610ede81610cd0565b8114610ee957600080fd5b5056fea2646970667358221220a28450b21213fe8b72f349c9e9f5ad1c0f5bc81e50b21de3f34cde6d4328a67f64736f6c63430008040033",
  "linkReferences": {},
  "deployedLinkReferences": {}
}